:100000000C94544B0C94754B0C9496E20C94754BD9
:100010000C94754B0C94754B0C94754B0C94754B60
:100020000C94754B0C94754B0C94754B0C9411E718
:100030000C94754B0C94754B0C94E8C40C94754B54
:100040000C94754B0C94754B0C94754B0C94754B30
:100050000C94754B0C94754B0C94754B0C94754B20
:100060000C94754B0C94A7E20C943DE20C94754BE8
:100070000C9413DC0C94C3DB0C94FADB0C94754BDE
:100080000C94D8E30C94754B0C94754B0C94754BF5
:100090000C94754B0C94754B0C94754B0C94754BE0
:1000A0000C94754B0C94754B0C94754B0C9494CC30
:1000B0000C946ECD0C94754B0C94754B0C94DFC660
:1000C0000C94754B0C94754B0C94754B0C94754BB0
:1000D0000C94754B0C94754B0C94754B0C94754BA0
:1000E0000C9462B50C94754B0C94754B0C94754B39
:1000F0000C94754B0C94754B0C94754B0C94754B80
:100100000C945ECC0C9437CD0C9428CC0C9400CD80
:100110000C94754B0C94754B0C94754B0C94754B5F
:100120000C94754B0C94754B0C94754B0C94754B4F
:100130000C94754B0C9441C60C94754B0C94754BF8
:100140000C94754B0C94754B0C94754B0C94754B2F
:100150000C94754B0C94754B0C9461B50C94754BC9
:100160000C94754B0C94754B0C94754B0C94754B0F
:100170000C94754B0C94754B0C94754B0C94754BFF
:100180000C94754B0C94754B0C94754B0C94754BEF
:100190000C94754B0C94754B0C94754B0C94754BDF
:1001A0000C94CACC0C94A5CD0C94754B0C94754B47
:1001B0000C9493C60C94754B0C94754B0C94754B26
:1001C0000C94754B0C94754B0C94754B0C94754BAF
:1001D0000C94754B0C94754B0C94754B0C94754B9F
:1001E0000C94754B0C94754B084AD73B3BCE016E73
:1001F00084BCBFFDC12F3D6C74319ABD56833DDA7E
:100200003D00C77F11BED9E4BB4C3E916BAAAABE8C
:10021000000000803F05A84CCDB2D44EB93836A9B5
:10022000020C50B9918688083CA6AAAA2ABE0000F2
:1002300000803F07634236B79BD8A71A3968561823
:10024000AEBAAB558C1D3CB7CC5763BD6DEDFD759B
:100250003EF6177231BF000000803F08000000BE6C
:10026000922449123EABAAAA2ABECDCCCC4C3E0069
:10027000000080BEABAAAAAA3E00000000BF00009A
:1002800000803F0000000000084178D3BB4387D1C5
:10029000133D190E3CC3BD4282AD2B3E68EC827605
:1002A000BED98FE1A93E4C80EFFFBE01C4FF7F3F66
:1002B0000000000000000C946FCF0C948DCB0C94C8
:1002C00001650C9470850C946E760C944FCF0C9451
:1002D000686E0C942E6F0C94FA7E0C942A830C9406
:1002E0001B7F0C941F800C940ACC0C94C47F0C943C
:1002F000B9860C94F5820C942ECE0C9459630C9410
:10030000D7850C94B8B60C9456C90C9459800C94AB
:100310008E860C9460640C94CF670C94A4730C9438
:10032000786E0C9482650C94917E0C94C9800C9428
:100330000B620C940A690C94C37D0C94D5630C94E5
:1003400002800C9458D30C94BC680C94B4B60C94F2
:10035000AD830C94DA820C9419830C94745F0C9422
:10036000AB670C9488630C943C800C94405D0C94B7
:1003700001DB0C9408BC0C94BACB0C9465DF0C9494
:1003800003DA0C94E6800C9470CA0C9474D30C9429
:100390008F800C941FCF0C94F3670C94BC720C9458
:1003A000196E0C94E85F0C94A2620C9405830C9473
:1003B000E17F0C946C6E0C94767C0C9452630C94DC
:1003C0001F910C94B66D0C94F5630C94997F0C946A
:1003D00015830C9449D80C9467650C9406790C9499
:1003E000477F0C9452BD0C94C1630C9463860C94AB
:1003F000F1630C94A15F0C94B9630C94AA820C94E1
:100400004B630C94F05D0C9404CE0C945F7C0C94C4
:10041000BA5F0C94C79F0C9417CF0C94BDBE0C947C
:1004200067630C94ED630C94685E0C94D9CE0C94C5
:100430006B650C9405650C9476760C94987C0C9402
:10044000EA800C94A77E0C9492790C9401830C940E
:10045000A9630C9487CF0C947FCF0C9420810C94CB
:10046000E1630C941A680C94746E0C944ACB0C944F
:100470004EBD0C94C54B0C94C87F0C946A8C0C94A4
:10048000BD630C94B5630C943C7F0C949A610C94FE
:1004900077650C9423D80C94C85D0C9472C90C94A5
:1004A000C47E0C940BCE0C94FD820C9463650C946A
:1004B000A0B60C943FD30C94C2820C949C7E0C94F6
:1004C00067CF0C94E57F0C94F9730C945FBA0C948D
:1004D000C9DF0C9469B70C94B0B60C94B6820C9436
:1004E000E06E0C94F9640C9494B60C94517C0C94CA
:1004F000FDCE0C94B0CF0C94497E0C94777D0C9477
:100500006FDA0C944C680C94077E0C94F5640C9490
:10051000557F0C94E9DE0C9446780C94CF7E0C94B5
:10052000EBBB0C94BD830C949ADD0C945FCF0C94C0
:10053000405E0C94A1CA0C94FD550C94D7E10C9428
:10054000146F0C9461690C94C6820C94F34E0C9455
:10055000F1640C94FA600C94687C0C9421790C94EE
:1005600020CE0C94FD640C94F47E0C945CD80C9416
:100570008C620C9496790C9432600C9427CF0C9476
:10058000437C0C94467C0C94F9DC0C9435CA0C9496
:100590001B800C94F9630C94E7850C94D1630C9444
:1005A0006B850C94E1680C9469600C9472680C94EF
:1005B000AB7F0C9491D30C94827C0C9460CB0C9404
:1005C000797D0C947B7D0C944FCB0C94AE820C9473
:1005D000955E0C9498B60C9424810C94728C0C94B7
:1005E00010D80C94F9820C94B0800C9431690C945E
:1005F0001F4D0C9449DA0C94A2640C940FCF0C9408
:100600007D7D0C9497BA0C941A5F0C94E3850C943E
:10061000CE820C9427CE0C94A77F0C94A7670C94E1
:10062000267F0C94C28E0C94057F0C94E57E0C946E
:1006300051DB0C9424860C94CF730C9497680C9423
:10064000774B0C949C6F0C948D7C0C94AB7E0C942B
:100650000C850C94A8B60C94656F0C94BA820C941B
:10066000C57D0C940D830C9497CF0C94FE8B0C9449
:10067000587D0C94ED820C94327C0C9419CE0C9421
:1006800007810C946F650C94DFCE0C9438610C9448
:10069000CD800C9482D80C9412DE0C9438670C94A4
:1006A000A4B60C94DB850C943FCF0C9476800C940C
:1006B000267D0C94FE7F0C94A05D0C94F9CE0C94D6
:1006C00073650C946B610C944A680C9472800C9462
:1006D00087830C94C9630C94FA6E0C947D650C941A
:1006E000E5640C9440D30C94C25E0C94E0DA0C9454
:1006F0006B7D0C94B7690C9460620C949CB60C945E
:10070000E9640C9493800C9488720C94046E0C949D
:1007100070DD0C94AD630C948FCF0C945E7D0C94C3
:100720001C530C9446BD0C94814B0C9495D80C949E
:10073000D2820C9444D40C9432650C941A640C94B8
:1007400095BA0C94ED5E0C942FCF0C94AC800C9465
:100750004E7F0C948A730C946FD80C9460630C9445
:1007600071E00C9464C90C94107F0C9438800C9444
:1007700047CF0C94FAC90C94697D0C94706E0C945C
:10078000317F0C945BBA0C94DD630C94CD630C94B4
:1007900091620C9436D80C945DBA0C949BBA0C946C
:1007A000475F0C9455800C94B1630C94E5630C94F2
:1007B000DA7E0C943B640C94C5630C9457CF0C9474
:1007C000667C0C9477CF0C94E7720C94646E0C9456
:1007D00085830C94E97E0C94E4C90C9409830C94F1
:1007E000D6BB0C946B7C0C945F650C943F740C949A
:1007F00093BE0C94B77D0C94E9630C94D9630C946C
:10080000ACB60C941DCB0C944ABD0C948B4B0C9441
:1008100012CE0C946E8C0C94ED640C94185E0C94B7
:10082000EC7C0C94DF850C94957F0C94D15F0C9438
:100830005D7C0C9403810C9472DB0C9411CB0C94B2
:100840003E810C9437CF4E414E494E495459494E42
:1008500046CDCCCC3D0AD7233C17B7D13877CC2B2B
:10086000329595E6241FB14F0A000020410000C8D0
:100870004200401C4620BCBE4CCA1B0E5AAEC59D51
:10088000744649524D574152455F4E414D453A5489
:10089000696E79472C204649524D574152455F5564
:1008A000524C3A6874747073252533412F2F676951
:1008B000746875622E636F6D2F73796E74686574DA
:1008C0006F732F54696E79472C204649524D57411A
:1008D00052455F56455253494F4E3A25302E3266A7
:1008E0002C204649524D574152455F4255494C4490
:1008F0003A25302E32662C20484152445741524509
:100900005F504C4154464F524D3A25302E32662CA2
:100910002048415244574152455F56455253494F32
:100920004E3A25302E32662C204D414348494E45E3
:100930005F545950453A4F70656E506E502C205898
:100940002D4255494C445F53595354454D3A434DFC
:10095000616B650A006F6B20543A25640A005B25C1
:100960007325735D20257320257320706F73697460
:10097000696F6E2531382E336625730A005B257347
:1009800025735D202573202573206F66667365745B
:100990002532302E336625730A005B257325735D7F
:1009A000202573207A65726F206261636B6F6666C3
:1009B0002531392E336625730A005B257325735D57
:1009C000202573206C61746368206261636B6F66BD
:1009D000662531382E336625730A005B257325732F
:1009E0005D202573206C617463682076656C6F638D
:1009F0006974792531332E306625732F6D696E0A3F
:100A0000005B257325735D20257320736561726318
:100A1000682076656C6F636974792531322E306693
:100A200025732F6D696E0A005B257325735D202584
:100A30007320737769746368206D6178253137643A
:100A4000205B303D6F66662C313D686F6D696E6767
:100A50002C323D6C696D69742C333D6C696D697421
:100A60002B686F6D696E675D0A005B257325735D8A
:100A700020257320737769746368206D696E253152
:100A80003764205B303D6F66662C313D686F6D6961
:100A90006E672C323D6C696D69742C333D6C696DE9
:100AA00069742B686F6D696E675D0A005B2573253D
:100AB000735D202573207261646975732076616CA3
:100AC00075652532302E346625730A005B25732543
:100AD000735D202573206A756E6374696F6E206480
:100AE0006576696174696F6E2531342E34662573BD
:100AF00020286C6172676572206973206661737467
:100B00006572290A005B257325735D202573206AB1
:100B100065726B20686F6D696E672531362E3066A1
:100B200025732F6D696E5E33202A2031206D696C2C
:100B30006C696F6E0A005B257325735D2025732039
:100B40006A65726B206D6178696D756D2531352E22
:100B5000306625732F6D696E5E33202A2031206D3B
:100B6000696C6C696F6E0A005B257325735D2025C7
:100B7000732074726176656C206D696E696D756D38
:100B80002531372E336625730A005B257325735D87
:100B90002025732074726176656C206D6178696DB3
:100BA000756D2531372E336625730A005B25732555
:100BB000735D2025732076656C6F63697479206D91
:100BC0006178696D756D2531312E306625732F6D15
:100BD000696E0A005B257325735D202573206665A9
:100BE000656472617465206D6178696D756D25311C
:100BF000312E306625732F6D696E0A005B257325D3
:100C0000735D2025732061786973206D6F6465259D
:100C10003138642025730A005B6D735D20206D6997
:100C20006E207365676D656E742074696D6525311E
:100C3000332E306620755365630A005B6D615D205D
:100C4000206D696E20617263207365676D656E74D7
:100C50002531382E336625730A005B6D6C5D2020CC
:100C60006D696E206C696E65207365676D656E7465
:100C70002531372E336625730A005B736C5D2020A7
:100C8000736F6674206C696D697420656E61626C47
:100C900065253132640A005B63745D202063686FF0
:100CA0007264616C20746F6C6572616E636525316E
:100CB000372E346625730A005B6A615D20206A75F1
:100CC0006E6374696F6E20616363656C65726174D5
:100CD000696F6E25382E306625730A005B6764697C
:100CE0005D2064656661756C742067636F64652060
:100CF00064697374616E6365206D6F646525326429
:100D0000205B303D4739302C313D4739315D0A0099
:100D10005B6770615D2064656661756C74206763F4
:100D20006F6465207061746820636F6E74726F6C9D
:100D3000253364205B303D4736312C313D47363119
:100D40002E312C323D4736345D0A005B67636F5DA0
:100D50002064656661756C742067636F64652063E9
:100D60006F6F72642073797374656D253364205BD3
:100D7000312D3620284735342D473539295D0A0075
:100D80005B67756E5D2064656661756C7420676372
:100D90006F646520756E697473206D6F64652535A9
:100DA00064205B303D4732302C313D4732315D0AA3
:100DB000005B67706C5D2064656661756C742067AC
:100DC000636F646520706C616E6525313064205BF3
:100DD000303D4731372C313D4731382C323D47319A
:100DE000395D0A002563206178697320686F6D6939
:100DF0006E672073746174653A25322E30660A007E
:100E0000256320776F726B206F66667365743A2571
:100E100031322E336625730A002563206D616368C5
:100E2000696E6520706F736E3A2531312E336625F9
:100E3000730A00256320706F736974696F6E3A25B9
:100E400031352E336625730A00546F6F6C206E7532
:100E50006D62657220202020202020202020256423
:100E60000A00466565642072617465206D6F646573
:100E70003A20202020202025730A004469737461E1
:100E80006E6365206D6F64653A202020202020204D
:100E900025730A0050617468204D6F64653A202004
:100EA00020202020202020202025730A00506C6163
:100EB0006E653A2020202020202020202020202085
:100EC000202025730A004D6F74696F6E206D6F646A
:100ED000653A20202020202020202025730A00436E
:100EE0006F6F7264696E6174652073797374656D78
:100EF0003A20202025730A00556E6974733A202029
:100F00002020202020202020202020202025730A9F
:100F100000486F6D696E672073746174653A2020B4
:100F200020202020202025730A0046656564686F14
:100F30006C642073746174653A2020202020202581
:100F4000730A004D6F74696F6E2073746174653A33
:100F5000202020202020202025730A004379636C64
:100F6000652073746174653A2020202020202020A1
:100F70002025730A00526177206D616368696E6590
:100F80002073746174653A20202025730A004D6136
:100F90006368696E652073746174653A202020204F
:100FA00020202025730A004C696E65206E756D62E5
:100FB00065723A2531302E30660A00466565642038
:100FC000726174653A2531362E336625732F6D694B
:100FD0006E0A0056656C6F636974793A2531372E55
:100FE000336625732F6D696E0A0041101010F00FE3
:100FF000473935202D20756E6974732D7065722DFB
:101000007265766F6C7574696F6E206D6F646500C4
:10101000473934202D20756E6974732D7065722DDB
:101020006D696E757465206D6F64652028692E6525
:101030002E206665656472617465206D6F64652934
:1010400000473933202D20696E76657273652074F0
:10105000696D65206D6F6465007D105D10473931E5
:10106000202D20696E6372656D656E74616C2064FD
:10107000697374616E6365206D6F64650047393014
:10108000202D206162736F6C7574652064697374C0
:10109000616E6365206D6F646500CE10B610A010A0
:1010A000473634202D20636F6E74696E756F7573CB
:1010B000206D6F6465004736312E31202D20657814
:1010C0006163742073746F70206D6F6465004736C0
:1010D00031202D2065786163742070617468206D03
:1010E0006F6465000811F910EA10473139202D208E
:1010F000595A20706C616E6500473138202D205898
:101100005A20706C616E6500473137202D20585988
:1011100020706C616E650094118211691148112173
:1011200011473830202D2063616E63656C206D6F30
:1011300074696F6E206D6F646520286E6F6E652018
:101140006163746976652900473320202D20636F21
:10115000756E74657220636C6F636B77697365205D
:10116000617263206665656400473220202D20632C
:101170006C6F636B77697365206172632066656568
:101180006400473120202D206C696E6561722066F5
:1011900065656400473020202D206C696E656172A2
:1011A00020747261766572736520287365656B299A
:1011B000005B12411227120D12F311D911BF114712
:1011C0003539202D20636F6F7264696E61746520FC
:1011D00073797374656D203600473538202D206390
:1011E0006F6F7264696E6174652073797374656D75
:1011F000203500473537202D20636F6F7264696E8C
:101200006174652073797374656D203400473536D9
:10121000202D20636F6F7264696E6174652073792D
:101220007374656D203300473535202D20636F6F53
:101230007264696E6174652073797374656D2032B0
:1012400000473534202D20636F6F7264696E6174BE
:10125000652073797374656D203100473533202D17
:10126000206D616368696E6520636F6F7264696E7B
:101270006174652073797374656D008E12881281B4
:1012800012486F6D696E6700486F6D6564004E6F40
:101290007420486F6D656400C212BD12B812B2129C
:1012A000AD12A412456E6420486F6C6400486F6CE8
:1012B0006400446563656C00506C616E0053796E28
:1012C00063004F666600D512D112CC12486F6C6471
:1012D0000052756E0053746F7000FF12F512EF121A
:1012E000E812E4124A6F6700486F6D696E6700503C
:1012F000726F6265004D616368696E696E67004F69
:1013000066660035132F132913241320131A1311A3
:101310001353687574646F776E004379636C65006E
:10132000456E640053746F7000416C61726D0052C1
:101330006561647900496E697469616C697A696E86
:101340006700981392138C13871383137F137A13F8
:1013500074136E13671363135A1353687574646FB1
:10136000776E004A6F6700486F6D696E670043795A
:10137000636C650050726F626500486F6C64005268
:10138000756E00456E640053746F7000416C61723D
:101390006D00526561647900496E697469616C69B8
:1013A0007A696E6700BF13A913473231202D206D73
:1013B000696C6C696D65746572206D6F646500475A
:1013C0003230202D20696E63686573206D6F64650F
:1013D00000F913EE13E213D9135B7261646975733C
:1013E0005D005B696E686962697465645D005B736A
:1013F00074616E646172645D005B64697361626CE8
:1014000065645D0013140F140A14206465670020DE
:101410006D6D0020696E002A2A2A204E4F544943E0
:1014200045202A2A2A20526573657474696E6720E4
:1014300062617564207261746520746F2025730089
:1014400072783A25640A005B6E65745D206E65747F
:10145000776F726B206D6F646525313764205B3068
:101460003D6D61737465725D0A005B626175645DF8
:101470002055534220626175642072617465253184
:101480003564205B313D393630302C323D313932D4
:1014900030302C333D33383430302C343D35373612
:1014A00030302C353D3131353230302C363D323311
:1014B000303430305D0A005B65785D2020656E61F8
:1014C000626C6520666C6F7720636F6E74726F6CF0
:1014D00025313064205B303D6F66662C313D584FBE
:1014E0004E2F584F46462C20323D5254532F4354D2
:1014F000535D0A005B65655D2020656E61626C6509
:10150000206563686F25313864205B303D6F666607
:101510002C313D6F6E5D0A005B65635D2020657850
:1015200070616E64204C4620746F2043524C4620FC
:101530006F6E205458253664205B303D6F66662CF4
:10154000313D6F6E5D0A007A1575156F156915636B
:10155000155C1555153233303430300031313532A9
:1015600030300035373630300033383430300031E9
:101570003932303000393630300030007379730042
:101580006662000000000702D7851A684A68D12CFD
:10159000E11ADC43737973006676000000000703EC
:1015A000DB851A684A68D52CEC51783F7379730053
:1015B0006870000000000700DF851A683169D92CC7
:1015C0000000803F73797300687600000000070018
:1015D000E3851A687085DD2C000000417379730083
:1015E0006964000000000400E7850C854A68CD2C82
:1015F00000000000000000006E000000000001007C
:10160000A963BA5FE168D025000000000000000077
:101610006C696E6500000100A963D15FE168D025A7
:10162000000000000000000076656C000000000271
:101630006763E85F4A68CD2C0000000000000000EE
:101640006665656400000002886332604A68CD2CDC
:1016500000000000000000007374617400000000CE
:10166000AD63405D4A68CD2C000000000000000022
:101670006D61637300000000B163A05D4A68CD2C0A
:1016800000000000000000006379637300000000A8
:10169000B563C85D4A68CD2C000000000000000062
:1016A0006D6F747300000000B963F05D4A68CD2C63
:1016B0000000000000000000686F6C640000000083
:1016C000BD63185E4A68CD2C0000000000000000D9
:1016D000756E697400000000C563685E4A68CD2CB1
:1016E0000000000000000000636F6F720000000047
:1016F000C963955E4A68CD2C000000000000000020
:101700006D6F6D6F00000000CD63C25E4A68CD2C26
:101710000000000000000000706C616E000000001E
:10172000D163ED5E4A68CD2C00000000000000008F
:101730007061746800000000D5631A5F4A68CD2CA0
:1017400000000000000000006469737400000000E5
:10175000D963475F4A68CD2C0000000000000000FC
:1017600066726D6F00000000DD63745F4A68CD2C07
:101770000000000000000000746F6F6C00000000AB
:10178000E163A15F4A68CD2C000000006D706F001E
:101790006D706F78000000037D65FA604A68CD2C9B
:1017A000000000006D706F006D706F790000000325
:1017B0007D65FA604A68CD2C000000006D706F00F6
:1017C0006D706F7A000000037D65FA604A68CD2C69
:1017D000000000006D706F006D706F61000000030D
:1017E0007D65FA604A68CD2C000000006D706F00C6
:1017F0006D706F62000000037D65FA604A68CD2C51
:10180000000000006D706F006D706F6300000003DA
:101810007D65FA604A68CD2C00000000706F73008F
:10182000706F737800000003776569604A68CD2C9B
:1018300000000000706F7300706F73790000000388
:10184000776569604A68CD2C00000000706F7300F6
:10185000706F737A00000003776569604A68CD2C69
:1018600000000000706F7300706F73610000000370
:10187000776569604A68CD2C00000000706F7300C6
:10188000706F736200000003776569604A68CD2C51
:1018900000000000706F7300706F7363000000033E
:1018A000776569604A68CD2C000000006F667300A0
:1018B0006F66737800000003826538614A68CD2C3A
:1018C000000000006F6673006F667379000000030C
:1018D000826538614A68CD2C000000006F66730095
:1018E0006F66737A00000003826538614A68CD2C08
:1018F000000000006F6673006F66736100000003F4
:10190000826538614A68CD2C000000006F66730064
:101910006F66736200000003826538614A68CD2CEF
:10192000000000006F6673006F66736300000003C1
:10193000826538614A68CD2C00000000686F6D0038
:10194000686F6D6500000000C163405E9162CD2C40
:1019500000000000686F6D00686F6D780000000087
:101960007765AB674A68A52500000000686F6D00C9
:10197000686F6D79000000007765AB674A68A6253F
:1019800000000000686F6D00686F6D7A0000000055
:101990007765AB674A68A72500000000686F6D0097
:1019A000686F6D61000000007765AB674A68A82525
:1019B00000000000686F6D00686F6D62000000003D
:1019C0007765AB674A68A92500000000686F6D0065
:1019D000686F6D63000000007765AB674A68AA25F1
:1019E000000000007072620070726265000000000A
:1019F0003FD3AB674A68AB250000000070726200FD
:101A000070726278000000033FD31A684A68AC2500
:101A100000000000707262007072627900000003C2
:101A20003FD31A684A68B025000000007072620057
:101A30007072627A000000033FD31A684A68B425C6
:101A400000000000707262007072626100000003AA
:101A50003FD31A684A68B82500000000707262001F
:101A600070726262000000033FD31A684A68BC25A6
:101A70000000000070726200707262630000000378
:101A80003FD31A684A68C025000000006A6F6700EB
:101A90006A6F6778000000003FD3A7674B63CA25D1
:101AA000000000006A6F67006A6F6779000000003D
:101AB0003FD3A7675263CA25000000006A6F670022
:101AC0006A6F677A000000003FD3A7675963CA2591
:101AD000000000006A6F67006A6F67610000000025
:101AE0003FD3A7676063CA250000000070777200CB
:101AF00070777231000000000ACCFAC94A68CD2C18
:101B000000000000707772007077723200000000F1
:101B10000ACCFAC94A68CD2C000000007077720028
:101B200070777233000000000ACCFAC94A68CD2CE5
:101B300000000000707772007077723400000000BF
:101B40000ACCFAC94A68CD2C000000000000000051
:101B5000737200000000000095BA5BBA5DBACD2C2C
:101B60000000000000000000717200000000000092
:101B700046BDD6BB4A68CD2C000000000000000026
:101B800071690000000000004ABDEBBB4A68CD2C23
:101B90000000000000000000716F00000000000065
:101BA0004EBD08BC4A68CD2C0000000000000000BB
:101BB00065720000000000003FD369B74A68CD2C71
:101BC000000000000000000071660000000000003E
:101BD0003FD3A7678C62CD2C0000000000000000FE
:101BE000727800000000000074D3046E4A68CD2CA7
:101BF00000000000000000006D736700000000009E
:101C000040D3A7674A68CD2C000000000000000008
:101C1000636C6561720000003FD31C531C53CD2CD4
:101C200000000000000000007465737400000000F4
:101C30003FD36386FDCECD2C0000000000000000E5
:101C400064656661000000003FD38E863867CD2C46
:101C50000000000000000000626F6F7400000000D0
:101C60003FD3B9866B85CD2C00000000000000003A
:101C700068656C70000000003FD324864A68CD2C54
:101C800000000000000000006800000000000000EC
:101C90003FD324864A68CD2C0000000031000000AC
:101CA000316D6100000003001DCBAB674C68C24D75
:101CB00000000000310000003173610000000303E8
:101CC0004ACB1A6856C9CD4D6666E63F3100000022
:101CD0003174720000000B044FCB1A6864C9D14DF7
:101CE0000000A03F31000000316D690000000300DA
:101CF00060CBAB6772C9C34D0000004131000000EA
:101D000031706F00000003008DCBAB677268C74D68
:101D1000000000003100000031706D000000030081
:101D2000BACBAB67E4C9C84D0000004032000000E8
:101D3000326D6100000003001DCBAB674C68E14DC4
:101D40000000803F32000000327361000000030396
:101D50004ACB1A6856C9EC4D6666E63F3200000071
:101D60003274720000000B044FCB1A6864C9F04D46
:101D70000000A03F32000000326D69000000030047
:101D800060CBAB6772C9E24D000000413200000039
:101D900032706F00000003008DCBAB677268E64DB8
:101DA000000000003200000032706D0000000300EF
:101DB000BACBAB67E4C9E74D000000403300000038
:101DC000336D6100000003001DCBAB674C68004E13
:101DD0000000004033000000337361000000030383
:101DE0004ACB1A6856C90B4E6666E63F33000000C0
:101DF0003374720000000B044FCB1A6864C90F4E95
:101E00000000A03F33000000336D690000000300B4
:101E100060CBAB6772C9014E000000413300000087
:101E200033706F00000003008DCBAB677268054E06
:101E3000000000003300000033706D00000003005C
:101E4000BACBAB67E4C9064E000000403400000086
:101E5000346D6100000003001DCBAB674C681F4E62
:101E600000004040340000003473610000000303B0
:101E70004ACB1A6856C92A4E6666E63F340000000F
:101E80003474720000000B044FCB1A6864C92E4EE4
:101E90000000B44334000000346D6900000003000A
:101EA00060CBAB6772C9204E0000004134000000D7
:101EB00034706F00000003008DCBAB677268244E56
:101EC000000000003400000034706D0000000300CA
:101ED000BACBAB67E4C9254E000000407800000093
:101EE00078616D0000000300A2646B619A61602458
:101EF0000000803F7800000078766D0000000B0045
:101F0000E9641A68196E65240000484478000000EE
:101F10007866720000000B00E5641A68196E61248F
:101F2000000048447800000078746E0000000B0345
:101F3000F1641A68196E6D2400000000780000003A
:101F400078746D0000000B03ED641A68196E692443
:101F50000000164378000000786A6D0000000B0056
:101F6000F5641A680B6271240000A041780000003B
:101F7000786A680000000B00F9641A6860627524D2
:101F80000000204278000000786A640000000B0422
:101F9000FD641A68196E7D24CDCC4C3D780000009C
:101FA00078736E00000003000565AB67DFCE494E15
:101FB0000000803F78000000787378000000030084
:101FC0003265AB67DFCE4A4E0000000078000000AB
:101FD0007873760000000B005F651A68196E85241F
:101FE0000000FA4378000000786C760000000B00D7
:101FF00063651A68196E89240000C84278000000E1
:10200000786C620000000B0367651A68196E8D24F6
:102010000000A04078000000787A620000000B0306
:102020006B651A68196E91240000803F79000000EA
:1020300079616D0000000300A2646B619A619524D0
:102040000000803F7900000079766D0000000B00F1
:10205000E9641A68196E9A24000048447900000067
:102060007966720000000B00E5641A68196E962408
:10207000000048447900000079746E0000000B03F2
:10208000F1641A68196EA2240000000079000000B3
:1020900079746D0000000B03ED641A68196E9E24BC
:1020A0000000164379000000796A6D0000000B0003
:1020B000F5641A680B62A6240000A04179000000B4
:1020C000796A680000000B00F9641A686062AA244B
:1020D0000000204279000000796A640000000B04CF
:1020E000FD641A68196EB224CDCC4C3D7900000015
:1020F00079736E00000003000565AB67DFCE4B4EC1
:102100000000803F79000000797378000000030030
:102110003265AB67DFCE4C4E000000007900000056
:102120007973760000000B005F651A68196EBA2497
:102130000000FA4379000000796C760000000B0083
:1021400063651A68196EBE240000C8427900000059
:10215000796C620000000B0367651A68196EC2246F
:102160000000A04079000000797A620000000B03B3
:102170006B651A68196EC6240000803F7A00000063
:102180007A616D0000000300A2646B619A61CA2449
:102190000000803F7A0000007A766D0000000B009E
:1021A000E9641A68196ECF24000048447A000000E0
:1021B0007A66720000000B00E5641A68196ECB2481
:1021C000000048447A0000007A746E0000000B039F
:1021D000F1641A68196ED724000000007A0000002C
:1021E0007A746D0000000B03ED641A68196ED32435
:1021F000000096427A0000007A6A6D0000000B0031
:10220000F5641A680B62DB240000A0417A0000002C
:102210007A6A680000000B00F9641A686062DF24C3
:10222000000020427A0000007A6A640000000B047B
:10223000FD641A68196EE724CDCC4C3D7A0000008D
:102240007A736E00000003000565AB67DFCE4D4E6C
:10225000000000007A0000007A737800000003009C
:102260003265AB67DFCE4E4E0000803F7A00000043
:102270007A73760000000B005F651A68196EEF2410
:102280000000C8437A0000007A6C760000000B0062
:1022900063651A68196EF3240000C8427A000000D2
:1022A0007A6C620000000B0367651A68196EF724E8
:1022B0000000A0407A0000007A7A620000000B0360
:1022C0006B651A68196EFB240000803F61000000F6
:1022D00061616D0000000300A2646B619A61FF24DC
:1022E000000040406100000061766D0000000300C6
:1022F000E9641A6831690425000061486100000042
:102300006166720000000300E5641A683169002507
:10231000000061486100000061746E00000003036A
:10232000F1641A68196E0C25000080BF610000007E
:1023300061746D0000000303ED641A6831690825BB
:10234000000080BF61000000616A6D0000000300B2
:10235000F5641A680B6210250000B44561000000A6
:10236000616A680000000300F9641A68606214255D
:102370000000344661000000616A6400000003044C
:10238000FD641A6831691C25CDCC4C3D610000000C
:102390006172610000000B0301651A683169202534
:1023A000D5B74B3E6100000061736E000000030072
:1023B0000565AB67DFCE4F4E0000803F6100000037
:1023C00061737800000003003265AB67DFCE504ECA
:1023D000000000006100000061737600000003004F
:1023E0005F651A6831692425000016446100000009
:1023F000616C76000000030063651A683169282566
:102400000000C84261000000616C6200000003032C
:1024100067651A6831692C250000A0406100000042
:10242000617A6200000003036B651A683169302528
:10243000000000406200000062616D0000000300C7
:10244000A2646B619A613425000000006200000004
:1024500062766D0000000300E9641A68316939256D
:102460000000614562000000626672000000030027
:10247000E5641A6831693525000061456200000095
:1024800062746E0000000303F1641A68196E41253E
:10249000000080BF6200000062746D000000030352
:1024A000ED641A6831693D25000080BF62000000BC
:1024B000626A6D0000000300F5641A680B6245252E
:1024C0000000A04162000000626A64000000030096
:1024D000FD641A6831695125CDCC4C3D6200000085
:1024E0006272610000000B0301651A6831695525AD
:1024F0000000803F6300000063616D000000030086
:10250000A2646B619A61692500000000630000000D
:1025100063766D0000000300E9641A6831696E2576
:102520000000614563000000636672000000030064
:10253000E5641A6831696A2500006145630000009E
:1025400063746E0000000303F1641A68196E762547
:10255000000080BF6300000063746D00000003038F
:10256000ED641A6831697225000080BF63000000C5
:10257000636A6D0000000300F5641A680B627A2537
:102580000000A04163000000636A640000000300D3
:10259000FD641A6831698625CDCC4C3D630000008E
:1025A0006372610000000B0301651A6831698A25B6
:1025B0000000803F703100007031667271000300CE
:1025C00094B61A683169DC4B0000C84270310000D3
:1025D000703163736C00030098B61A683169E04B80
:1025E00000007A44703100007031637368000300AA
:1025F0009CB61A683169E44B0000FA44703100005F
:10260000703163706C000303A0B61A683169E84B3F
:102610000000003E703100007031637068000303F9
:10262000A4B61A683169EC4BCDCC4C3E7031000039
:10263000703177736C000300A8B61A683169F04BEB
:1026400000007A4470310000703177736800030035
:10265000ACB61A683169F44B0000FA4470310000DE
:10266000703177706C000303B0B61A683169F84BAB
:102670000000003E70310000703177706800030385
:10268000B4B61A683169FC4BCDCC4C3E70310000B9
:102690007031706F66000303B8B61A683169004C78
:1026A000CDCCCC3D673534006735347800000B0362
:1026B0006F651A68196ED02300000000673534007A
:1026C0006735347900000B036F651A68196ED423DF
:1026D00000000000673534006735347A00000B03D2
:1026E0006F651A68196ED823000000006735340042
:1026F0006735346100000B036F651A68196EDC23BF
:1027000000000000673534006735346200000B03B9
:102710006F651A68196EE023000000006735340009
:102720006735346300000B036F651A68196EE42384
:1027300000000000673535006735357800000B0371
:102740006F651A68196EE8230000964267353500F8
:102750006735357900000B036F651A68196EEC2335
:1027600000009642673535006735357A00000B0367
:102770006F651A68196EF023000000006735350098
:102780006735356100000B036F651A68196EF42315
:1027900000000000673535006735356200000B0327
:1027A0006F651A68196EF823000000006735350060
:1027B0006735356300000B036F651A68196EFC23DB
:1027C00000000000673536006735367800000B03DF
:1027D0006F651A68196E0024000000006735360026
:1027E0006735367900000B036F651A68196E04248B
:1027F00000000000673536006735367A00000B03AD
:102800006F651A68196E08240000000067353600ED
:102810006735366100000B036F651A68196E0C246A
:1028200000000000673536006735366200000B0394
:102830006F651A68196E10240000000067353600B5
:102840006735366300000B036F651A68196E142430
:1028500000000000673537006735377800000B034C
:102860006F651A68196E182400000000673537007C
:102870006735377900000B036F651A68196E1C24E1
:1028800000000000673537006735377A00000B031A
:102890006F651A68196E2024000000006735370044
:1028A0006735376100000B036F651A68196E2424C1
:1028B00000000000673537006735376200000B0302
:1028C0006F651A68196E282400000000673537000C
:1028D0006735376300000B036F651A68196E2C2487
:1028E00000000000673538006735387800000B03BA
:1028F0006F651A68196E30240000000067353800D3
:102900006735387900000B036F651A68196E342437
:1029100000000000673538006735387A00000B0387
:102920006F651A68196E382400000000673538009A
:102930006735386100000B036F651A68196E3C2417
:1029400000000000673538006735386200000B036F
:102950006F651A68196E4024000000006735380062
:102960006735386300000B036F651A68196E4424DD
:1029700000000000673539006735397800000B0327
:102980006F651A68196E4824000000006735390029
:102990006735397900000B036F651A68196E4C248E
:1029A00000000000673539006735397A00000B03F5
:1029B0006F651A68196E50240000000067353900F1
:1029C0006735396100000B036F651A68196E54246E
:1029D00000000000673539006735396200000B03DD
:1029E0006F651A68196E58240000000067353900B9
:1029F0006735396300000B036F651A68196E5C2434
:102A000000000000673932006739327800000103A6
:102A10006F651A684A684226000000006739320074
:102A200067393279000001036F651A684A684626E3
:102A300000000000673932006739327A0000010374
:102A40006F651A684A684A2600000000673932003C
:102A500067393261000001036F651A684A684E26C3
:102A6000000000006739320067393262000001035C
:102A70006F651A684A685226000000006739320004
:102A800067393263000001036F651A684A68562689
:102A90000000000067323800673238780000010318
:102AA00073651A684A685A260000000067323800C9
:102AB000673238790000010373651A684A685E2638
:102AC00000000000673238006732387A00000103E6
:102AD00073651A684A686226000000006732380091
:102AE000673238610000010373651A684A68662618
:102AF00000000000673238006732386200000103CE
:102B000073651A684A686A26000000006732380058
:102B1000673238630000010373651A684A686E26DD
:102B20000000000067333000673330780000010395
:102B300073651A684A687226000000006733300027
:102B4000673330790000010373651A684A68762696
:102B500000000000673330006733307A0000010363
:102B600073651A684A687A260000000067333000EF
:102B7000673330610000010373651A684A687E2676
:102B8000000000006733300067333062000001034B
:102B900073651A684A6882260000000067333000B7
:102BA000673330630000010373651A684A6886263C
:102BB000000000006A6964006A6964610000000046
:102BC0003FD3F3670A69F52C000000006A696400CE
:102BD0006A696462000000003FD3F3670A69F92C58
:102BE000000000006A6964006A6964630000000014
:102BF0003FD3F3670A69FD2C000000006A69640096
:102C00006A696464000000003FD3F3670A69012D1C
:102C100000000000737973006A61000000000F007B
:102C2000F9631A68196E9E230050C34773797300C5
:102C30006374000000000F041A641A68196EA2235E
:102C40000AD7233C73797300736C000000000700FF
:102C50003B64AB674C68A6230000000073797300E7
:102C60007374000000000700F9CEAB67D9CE3E4E6A
:102C700000000000737973006D740000000007020B
:102C800011CB1A6835CABE4D00000040000000009C
:102C90006D6500000000000040D3A1CAA1CACD2C80
:102CA00000000000000000006D6400000000000053
:102CB00040D370CA70CACD2C000000007379730035
:102CC000656A0000000007006A8CAB677268822C9E
:102CD0000000803F737973006A76000000000700EF
:102CE0006E8CAB67FE8B6E31000000407379730011
:102CF0006A73000000000700728CAB677268703165
:102D00000000803F737973007476000000000700B4
:102D100044D4AB677268E24E0000803F7379730061
:102D2000717600000000070052BDAB67BC68354CEF
:102D30000000000073797300737600000000070044
:102D40009BBAAB679768424C0000803F7379730071
:102D5000736900000000070097BACF675FBA434C61
:102D60000000FA43737973006563000000000700F8
:102D7000646EAB67656F832C00000000737973008D
:102D80006565000000000700686EAB67786E842CF4
:102D900000000000737973006578000000000700F0
:102DA0006C6EAB672E6F852C0000803F73797300CB
:102DB0006261756400000400706EAB67B66D862CAE
:102DC0000000A040737973006E6574000000070076
:102DD000746EAB674C68E42C0000000073797300DC
:102DE00067706C0000000700E563AB679768B42369
:102DF000000000007379730067756E000000070023
:102E0000E963AB677268B5230000803F7379730094
:102E100067636F0000000700ED63AB674C68B32386
:102E20000000803F73797300677061000000070045
:102E3000F163AB679768B6230000004073797300B5
:102E40006764690000000700F563AB677268B72329
:102E500000000000000000006763000000000000A8
:102E60003FD3AD83BD83CD2C0000000000000000E7
:102E70006D61000000000B0460641A68196EAB23DA
:102E8000CDCCCC3D000000006664000000000300D3
:102E900058D3AB6772686F31000000007564610041
:102EA000756461300000030074D3F3670A69882CED
:102EB000000000007564610075646131000003006A
:102EC00074D3F3670A698C2C0000000075646100FC
:102ED000756461320000030074D3F3670A69902CB3
:102EE0000000000075646100756461330000030038
:102EF00074D3F3670A69942C0000000075646200C3
:102F0000756462300000030074D3F3670A69982C7B
:102F10000000000075646200756462310000030007
:102F200074D3F3670A699C2C00000000756462008A
:102F3000756462320000030074D3F3670A69A02C41
:102F400000000000756462007564623300000300D5
:102F500074D3F3670A69A42C000000007564630051
:102F6000756463300000030074D3F3670A69A82C0A
:102F700000000000756463007564633100000300A5
:102F800074D3F3670A69AC2C000000007564630019
:102F9000756463320000030074D3F3670A69B02CD0
:102FA0000000000075646300756463330000030073
:102FB00074D3F3670A69B42C0000000075646400E0
:102FC000756464300000030074D3F3670A69B82C99
:102FD0000000000075646400756464310000030043
:102FE00074D3F3670A69BC2C0000000075646400A8
:102FF000756464320000030074D3F3670A69C02C5F
:103000000000000075646400756464330000030010
:1030100074D3F3670A69C42C000000005F74650074
:103020005F7465780000000291D31A684A68F23133
:10303000000000005F7465005F74657900000002A5
:1030400091D31A684A68F631000000005F74650089
:103050005F74657A0000000291D31A684A68FA31F9
:10306000000000005F7465005F746561000000028D
:1030700091D31A684A68FE31000000005F74650051
:103080005F7465620000000291D31A684A680232D8
:10309000000000005F7465005F746563000000025B
:1030A00091D31A684A680632000000005F7472000B
:1030B0005F7472780000000291D31A684A6817336F
:1030C000000000005F7472005F74727900000002FB
:1030D00091D31A684A681B33000000005F747200C5
:1030E0005F74727A0000000291D31A684A681F3335
:1030F000000000005F7472005F74726100000002E3
:1031000091D31A684A682333000000005F7472008C
:103110005F7472620000000291D31A684A68273314
:10312000000000005F7472005F74726300000002B0
:1031300091D31A684A682B33000000005F74730053
:103140005F7473310000000291D31A684A688232BA
:10315000000000005F7073005F70733100000002B8
:1031600091D31A684A689232000000005F637300CE
:103170005F6373310000000291D31A684A68A2327B
:10318000000000005F6573005F657331000000029E
:1031900091D31A684A68B232000000005F78730069
:1031A0005F7873310000000291D31A684A68674D56
:1031B000000000005F6665005F6665310000000288
:1031C00091D31A684A68C232000000005F7473002D
:1031D0005F7473320000000291D31A684A68863225
:1031E000000000005F7073005F7073320000000227
:1031F00091D31A684A689632000000005F6373003A
:103200005F6373320000000291D31A684A68A632E5
:10321000000000005F6573005F657332000000020C
:1032200091D31A684A68B632000000005F787300D4
:103230005F7873320000000291D31A684A687F4DAC
:10324000000000005F6665005F66653200000002F6
:1032500091D31A684A68C632000000005F74730098
:103260005F7473330000000291D31A684A688A328F
:10327000000000005F7073005F7073330000000295
:1032800091D31A684A689A32000000005F637300A5
:103290005F6373330000000291D31A684A68AA3250
:1032A000000000005F6573005F657333000000027B
:1032B00091D31A684A68BA32000000005F78730040
:1032C0005F7873330000000291D31A684A68974D03
:1032D000000000005F6665005F6665330000000265
:1032E00091D31A684A68CA32000000005F74730004
:1032F0005F7473340000000291D31A684A688E32FA
:10330000000000005F7073005F7073340000000203
:1033100091D31A684A689E32000000005F63730010
:103320005F6373340000000291D31A684A68AE32BA
:10333000000000005F6573005F65733400000002E9
:1033400091D31A684A68BE32000000005F787300AB
:103350005F7873340000000291D31A684A68AF4D59
:10336000000000005F6665005F66653400000002D3
:1033700091D31A684A68CE320000000000000000B5
:103380005F64616D000000003FD3A262A262CD2C99
:1033900000000000000000007365303000000200F3
:1033A0003FD3CF67E1684E4C0000000000000000F2
:1033B00073653031000002003FD3CF67E168504CA5
:1033C00000000000000000007365303200000200C1
:1033D0003FD3CF67E168524C0000000000000000BE
:1033E00073653033000002003FD3CF67E168544C6F
:1033F000000000000000000073653034000002008F
:103400003FD3CF67E168564C000000000000000089
:1034100073653035000002003FD3CF67E168584C38
:10342000000000000000000073653036000002005C
:103430003FD3CF67E1685A4C000000000000000055
:1034400073653037000002003FD3CF67E1685C4C02
:10345000000000000000000073653038000002002A
:103460003FD3CF67E1685E4C000000000000000021
:1034700073653039000002003FD3CF67E168604CCC
:103480000000000000000000736531300000020001
:103490003FD3CF67E168624C0000000000000000ED
:1034A00073653131000002003FD3CF67E168644C9F
:1034B00000000000000000007365313200000200CF
:1034C0003FD3CF67E168664C0000000000000000B9
:1034D00073653133000002003FD3CF67E168684C69
:1034E000000000000000000073653134000002009D
:1034F0003FD3CF67E1686A4C000000000000000085
:1035000073653135000002003FD3CF67E1686C4C32
:10351000000000000000000073653136000002006A
:103520003FD3CF67E1686E4C000000000000000050
:1035300073653137000002003FD3CF67E168704CFC
:103540000000000000000000736531380000020038
:103550003FD3CF67E168724C00000000000000001C
:1035600073653139000002003FD3CF67E168744CC6
:10357000000000000000000073653230000002000F
:103580003FD3CF67E168764C0000000000000000E8
:1035900073653231000002003FD3CF67E168784C99
:1035A00000000000000000007365323200000200DD
:1035B0003FD3CF67E1687A4C0000000000000000B4
:1035C00073653233000002003FD3CF67E1687C4C63
:1035D00000000000000000007365323400000200AB
:1035E0003FD3CF67E1687E4C000000000000000080
:1035F00073653235000002003FD3CF67E168804C2D
:103600000000000000000000736532360000020078
:103610003FD3CF67E168824C00000000000000004B
:1036200073653237000002003FD3CF67E168844CF6
:103630000000000000000000736532380000020046
:103640003FD3CF67E168864C000000000000000017
:1036500073653239000002003FD3CF67E168884CC0
:1036600000000000000000007379730000000000FB
:103670003FD36169B769CD2C000000000000000055
:1036800070310000000000003FD36169B769CD2CA4
:1036900000000000000000003100000000000000F9
:1036A0003FD36169B769CD2C000000000000000025
:1036B00032000000000000003FD36169B769CD2CE3
:1036C00000000000000000003300000000000000C7
:1036D0003FD36169B769CD2C0000000000000000F5
:1036E00034000000000000003FD36169B769CD2CB1
:1036F0000000000000000000780000000000000052
:103700003FD36169B769CD2C0000000000000000C4
:1037100079000000000000003FD36169B769CD2C3B
:1037200000000000000000007A000000000000001F
:103730003FD36169B769CD2C000000000000000094
:1037400061000000000000003FD36169B769CD2C23
:103750000000000000000000620000000000000007
:103760003FD36169B769CD2C000000000000000064
:1037700063000000000000003FD36169B769CD2CF1
:103780000000000000000000673534000000000069
:103790003FD36169B769CD2C000000000000000034
:1037A00067353500000000003FD36169B769CD2C53
:1037B0000000000000000000673536000000000037
:1037C0003FD36169B769CD2C000000000000000004
:1037D00067353700000000003FD36169B769CD2C21
:1037E0000000000000000000673538000000000005
:1037F0003FD36169B769CD2C0000000000000000D4
:1038000067353900000000003FD36169B769CD2CEE
:1038100000000000000000006739320000000000D6
:103820003FD36169B769CD2C0000000000000000A3
:1038300067323800000000003FD36169B769CD2CC2
:1038400000000000000000006733300000000000AE
:103850003FD36169B769CD2C000000000000000073
:103860006D706F00000000003FD36169B769CD2C17
:103870000000000000000000706F730000000000F6
:103880003FD36169B769CD2C000000000000000043
:103890006F667300000000003FD36169B769CD2CEB
:1038A0000000000000000000686F6D0000000000D4
:1038B0003FD36169B769CD2C000000000000000013
:1038C00070726200000000003FD36169B769CD2CBF
:1038D000000000000000000070777200000000008F
:1038E0003FD36169B769CD2C0000000000000000E3
:1038F0006A6F6700000000003FD36169B769CD2C93
:1039000000000000000000006A6964000000000080
:103910003FD36169B769CD2C0000000000000000B2
:1039200075646100000000003FD36169B769CD2C68
:10393000000000000000000075646200000000004C
:103940003FD36169B769CD2C000000000000000082
:1039500075646300000000003FD36169B769CD2C36
:10396000000000000000000075646400000000001A
:103970003FD36169B769CD2C000000000000000052
:103980005F746500000000003FD36169B769CD2C0A
:1039900000000000000000005F74720000000000E2
:1039A0003FD36169B769CD2C000000000000000022
:1039B0005F747300000000003FD36169B769CD2CCC
:1039C00000000000000000005F70730000000000B5
:1039D0003FD36169B769CD2C0000000000000000F2
:1039E0005F637300000000003FD36169B769CD2CAD
:1039F00000000000000000005F6573000000000090
:103A00003FD36169B769CD2C0000000000000000C1
:103A10005F787300000000003FD36169B769CD2C67
:103A200000000000000000005F666500000000006C
:103A30003FD36169B769CD2C000000000000000091
:103A40006D000000000000003FD3E06E4A68CD2CFE
:103A500000000000000000007100000000000000F5
:103A60003FD3FA6E4A68CD2C000000000000000031
:103A70006F000000000000003FD3146F4A68CD2C97
:103A80000000000000000000240000000000000012
:103A90003FD39C6F4A68CD2C00000000456E642027
:103AA0006F6620636F6D6D616E642066696C650A78
:103AB00000486F6D696E67206572726F72202D20ED
:103AC000256320617869732073657474696E677308
:103AD000206D6973636F6E66696775726564005007
:103AE000726F62696E67206572726F72202D202579
:103AF0006320617869732063616E6E6F74206D6FEF
:103B0000766520647572696E672070726F62696E87
:103B100067005B69645D202054696E7947204944E1
:103B2000253330730A005B68765D2020686172641B
:103B3000776172652076657273696F6E2531362EF6
:103B400032660A005B68705D20206861726477618C
:103B5000726520706C6174666F726D2531352E321E
:103B6000660A005B66765D20206669726D77617219
:103B7000652076657273696F6E2531362E32660A5E
:103B8000005B66625D20206669726D7761726520F8
:103B90006275696C642531382E32660A00456E7490
:103BA00065722024626F6F743D3120746F20656EE2
:103BB0007465722074686520626F6F74206C6F6129
:103BC0006465722E0A000A0A0A2323232054696EB0
:103BD000794720424F4F54204C4F41444552204892
:103BE000656C70202323230A00456E7465722024BF
:103BF000646566613D3120746F2072657365742061
:103C00007468652073797374656D20746F207468AF
:103C10006520666163746F72792064656661756C96
:103C2000742076616C7565732E0A54686973207709
:103C3000696C6C206F766572777269746520616E4D
:103C400079206368616E67657320796F752068619C
:103C50007665206D6164652E0A000A0A0A23232313
:103C60002054696E794720524553544F52452044A1
:103C7000454641554C54532048656C7020232323FE
:103C80000A00496E766F6B652073656C66207465FB
:103C9000737420627920656E746572696E67202482
:103CA000746573743D4E207768657265204E206997
:103CB00073206F6E65206F663A0A20202474657346
:103CC000743D312020736D6F6B6520746573740AC9
:103CD000202024746573743D322020686F6D696EF6
:103CE00067207465737420202028796F75206D75A6
:103CF0007374207472697020686F6D696E672073C9
:103D000077697463686573290A2020247465737465
:103D10003D33202073717561726520746573742062
:103D20002020286120736572696573206F66207397
:103D3000717561726573290A202024746573743D5E
:103D40003420206172632074657374202020202049
:103D50002028736F6D65206C6172676520636972DE
:103D6000636C6573290A202024746573743D3520C3
:103D7000206477656C6C2074657374202020202883
:103D80006D6F76657320737061636564206279205E
:103D900031207365636F6E64206477656C6C732982
:103DA0000A202024746573743D362020666565649E
:103DB000686F6C6420746573742028656E74657216
:103DC000202120616E64207E20746F20686F6C64F7
:103DD00020616E6420726573746172742C20726548
:103DE00073706563746976656C79290A2020247480
:103DF0006573743D3720204D20636F6465732074B4
:103E00006573742020284D20636F64657320696E8C
:103E10007465726D696E676C65642077697468207B
:103E20006D6F766573290A202024746573743D389C
:103E300020204A534F4E2074657374202020202088
:103E4000286D6F74696F6E20746573742072756E5F
:103E5000207573696E67204A534F4E20636F6D6DF6
:103E6000616E6473290A202024746573743D3920BF
:103E700020696E76657273652074696D652074655E
:103E800073740A202024746573743D313020726F7E
:103E900074617279206D6F74696F6E2074657374CC
:103EA0000A202024746573743D313120736D616C78
:103EB0006C206D6F76657320746573740A202024FE
:103EC000746573743D313220736C6F77206D6F763B
:103ED000657320746573740A202024746573743DBF
:103EE000313320636F6F7264696E6174652073791A
:103EF0007374656D206F6666736574207465737482
:103F000020284739322C204735342D473539290AA6
:103F10000A546573747320617373756D6520612035
:103F200063656E7465726564205859206F726967A5
:103F3000696E20616E64206174206C656173742009
:103F400038306D6D20636C656172616E63652069E8
:103F50006E20616C6C20646972656374696F6E7346
:103F60000A546573747320617373756D65205A20EC
:103F7000686173206174206C656173742034306DE6
:103F80006D20706F7369697469766520636C656113
:103F900072616E63650A5465737473207374617221
:103FA0007420776974682061204730205830205988
:103FB00030205A30206D6F76650A486F6D696E67E4
:103FC0002069732074686520657863657074696F13
:103FD0006E2E204E6F20696E697469616C20706F5F
:103FE000736974696F6E206F7220636C65617261B2
:103FF0006E636520697320617373756D65640A0073
:104000000A0A0A2323232054696E79472053454C1A
:104010004620544553542048656C70202323230ABE
:104020000045616368202420636F6D6D616E6420BC
:1040300061626F766520616C736F20646973706C68
:104040006179732074686520746F6B656E20666F8C
:104050007220656163682073657474696E67206996
:104060006E205B205D20627261636B6574730A541D
:104070006F20766965772073657474696E67732045
:10408000656E746572206120746F6B656E3A0A0A02
:104090002020243C746F6B656E3E0A0A466F7220C6
:1040A0006578616D706C65202479667220746F206C
:1040B000646973706C6179207468652059206D6142
:1040C00078206665656420726174650A0A546F2001
:1040D0007570646174652073657474696E677320AC
:1040E000656E74657220746F6B656E2065717561A5
:1040F0006C732076616C75653A0A0A2020243C7442
:104100006F6B656E3E3D3C76616C75653E0A0A4696
:104110006F72206578616D706C6520247966723DE0
:1041200038303020746F20736574207468652059AE
:10413000206D617820666565642072617465207405
:104140006F20383030206D6D2F6D696E7574650A83
:10415000466F7220636F6E66696775726174696F0E
:104160006E2064657461696C73207365653A2068BC
:10417000747470733A2F2F6769746875622E636F59
:104180006D2F73796E746865746F732F54696E79CF
:10419000472F77696B692F54696E79472D436F6E8E
:1041A00066696775726174696F6E0A005468657339
:1041B0006520636F6D6D616E64732061726520614F
:1041C000637469766520666F7220636F6E666967D7
:1041D00075726174696F6E3A0A20202473797320B6
:1041E00053686F772073797374656D202867656EE7
:1041F0006572616C292073657474696E67730A2037
:1042000020243120202053686F77206D6F746F72E7
:1042100020312073657474696E677320286F722073
:104220007768617465766572206D6F746F7220793E
:104230006F752077616E7420312C322C332C342929
:104240000A2020247820202053686F77205820618E
:104250007869732073657474696E677320286F7250
:10426000207768617465766572206178697320795A
:104270006F752077616E7420782C792C7A2C612CE4
:10428000622C63290A2020246D20202053686F7738
:1042900020616C6C206D6F746F722073657474692B
:1042A0006E67730A2020247120202053686F7720C6
:1042B000616C6C20617869732073657474696E67D2
:1042C000730A2020246F20202053686F7720616CB0
:1042D0006C206F66667365742073657474696E67AD
:1042E000730A2020242420202053686F7720616CDB
:1042F0006C2073657474696E67730A2020246820CB
:10430000202053686F7720746869732068656C702B
:104310002073637265656E0A0A000A0A0A23232362
:104320002054696E794720434F4E464947555241C4
:1043300054494F4E2048656C70202323230A000AFD
:10434000466F722064657461696C65642054696E9F
:10435000794720696E666F207365653A20687474CA
:1043600070733A2F2F6769746875622E636F6D2FB3
:1043700073796E746865746F732F54696E79472F03
:1043800077696B692F0A466F7220746865206C61CB
:1043900074657374206669726D77617265207365E8
:1043A000653A2068747470733A2F2F676974687562
:1043B000622E636F6D2F73796E746865746F732FDF
:1043C00054696E79470A506C65617365206C6F673C
:1043D00020616E792069737375657320617420683C
:1043E0007474703A2F2F7777772E73796E746865AF
:1043F000746F732E636F6D2F666F72756D730A48DD
:104400006176652066756E0A000A4E6F74653A2003
:1044100054696E79472067656E65726174657320B3
:104420006175746F6D617469632073746174757301
:10443000207265706F7274732062792064656661A2
:10444000756C740A546869732063616E206265201C
:1044500064697361626C656420627920656E74655D
:1044600072696E67202473763D300A536565207447
:1044700068652077696B692062656C6F7720666F6D
:1044800072206D6F72652064657461696C732E0AA9
:1044900000546865736520636F6D6D616E64732091
:1044A000617265206163746976652066726F6D2044
:1044B00074686520636F6D6D616E64206C696E65F4
:1044C0003A0A205E78202020202020202020202052
:1044D000202052657365742028636F6E74726F6C50
:1044E000207829202D20736F6674776172652072A1
:1044F000657365740A20203F202020202020202082
:1045000020202020204D616368696E6520706F73E4
:104510006974696F6E20616E642067636F646520E3
:104520006D6F64656C2073746174650A20202420AB
:1045300020202020202020202020202053686F775A
:1045400020616E642073657420636F6E66696775A1
:10455000726174696F6E2073657474696E67730A33
:10456000202021202020202020202020202020204A
:1045700046656564686F6C64202D2073746F7020CD
:104580006D6F74696F6E20776974686F7574206CD5
:104590006F73696E6720706F736974696F6E0A203C
:1045A000207E20202020202020202020202020438A
:1045B00079636C65205374617274202D2072657369
:1045C000746172742066726F6D2066656564686FD1
:1045D0006C640A2020682020202020202020202019
:1045E00020202053686F7720746869732068656C99
:1045F000702073637265656E0A2020246820202075
:1046000020202020202020202053686F7720636FF7
:104610006E66696775726174696F6E2068656C702B
:104620002073637265656E0A20202474657374209C
:1046300020202020202020204C6973742073656C7A
:10464000662D74657374730A202024746573743D39
:104650004E2020202020202052756E2073656C662D
:104660002D74657374204E0A202024686F6D653D9B
:10467000312020202020202052756E206120686F7C
:104680006D696E67206379636C650A202024646518
:1046900066613D3120202020202020526573746FF8
:1046A000726520616C6C2073657474696E67732029
:1046B000746F2022666163746F727922206465666C
:1046C00061756C74730A000A0A0A23232320546953
:1046D0006E79472048656C70202323230A005B66AF
:1046E000735D2020666F6F746572207374796C65DA
:1046F00025313764205B303D6E65772C313D6F6C22
:10470000645D0A005B6A735D20206A736F6E2073BC
:10471000657269616C697A65207374796C65253995
:1047200064205B303D72656C617865642C313D734B
:1047300074726963745D0A005B6A765D20206A7337
:104740006F6E20766572626F736974792531356496
:10475000205B303D73696C656E742C313D666F6F04
:104760007465722C323D6D657373616765732C33AC
:104770003D636F6E666967732C343D6C696E656E60
:10478000756D2C353D766572626F73655D0A005BF1
:10479000656A5D2020656E61626C65206A736F6E6C
:1047A000206D6F646525313364205B303D7465781E
:1047B000742C313D4A534F4E5D0A00C858C258BB55
:1047C00058B658AD58A25897588B587F5871585AB8
:1047D000584B583E5832581E581158FC57E857E568
:1047E00057E257D357BE57A9579A578A57785761F8
:1047F00057445727570E57F856E756D556C856B65A
:10480000569C5699569656935690568D568A56876C
:1048100056845681567E567B567856755672566F1C
:10482000566C5669566656635660565D565A5657CC
:1048300056545651564E564B564856455642563F7C
:10484000563C5639563656335630562D562A56272C
:1048500056245621561E561B561856155612560FDC
:10486000560C560956065603560056FD55FA55D6AF
:1048700055B6559C5582556855445527550F55F9E1
:1048800054DF54BB549E548C546C5455543C541AAD
:10489000540154E353C753AF539D537F536A536638
:1048A0005362535E535A53565352534E534A5346D0
:1048B0005342533E533A53365332532E532A5310D6
:1048C00053F652E352C752B5529E527D526C524C2F
:1048D000522C521252F851E151AE51815161513F67
:1048E000511951F250D650B7509D5083505E5035FB
:1048F000501D50F24FC64F904F5B4F494F374F28D6
:104900004F154FFC4EDA4EC84EB64EA44E924E8016
:104910004E6E4E5C4E4A4E384E264E144E024EF0AF
:104920004DDE4DDA4DD64DD24DCE4DCA4DC64DC29F
:104930004DBE4DBA4DB64DB24DAE4DAA4DA64DA28F
:104940004D9E4D9A4D964D924D8E4D7A4D5C4D40FB
:104950004D154DF04CCB4CC74CC34CBF4CBB4CB76A
:104960004CB34CAF4CAB4CA74CA34C9F4C9B4C97BF
:104970004C934C7F4C634C474C2B4C0F4CF34BD718
:104980004BBB4B9F4B834B674B4B4B2F4B2B4B27BF
:104990004B234B1F4B1B4B174B134BFF4AD74AB0B4
:1049A0004A8A4A5D4A374A0A4A064A024AFE49EB9F
:1049B00049CA49B5494A6F6767696E672063796379
:1049C0006C65206661696C65640050726F62652079
:1049D000656E64706F696E742069732073746172A0
:1049E00074696E6720706F696E740050726F6265D3
:1049F000206379636C65206661696C65640032349C
:104A000039003234380032343700486F6D696E67D0
:104A1000204572726F72202D20486F6D696E67207D
:104A20007377697463686573206D6973636F6E660D
:104A300069677572656400486F6D696E67204572BD
:104A4000726F72202D204E65676174697665206CE7
:104A500061746368206261636B6F666600486F6DA6
:104A6000696E67204572726F72202D2054726176D4
:104A7000656C206D696E2026206D617820617265FD
:104A8000207468652073616D6500486F6D696E679D
:104A9000204572726F72202D204C617463682076FD
:104AA000656C6F63697479206973207A65726F0031
:104AB000486F6D696E67204572726F72202D2053AA
:104AC00065617263682076656C6F636974792069CB
:104AD00073207A65726F00486F6D696E672045724A
:104AE000726F72202D20426164206F72206E6F20E1
:104AF00061786973207370656369666965640048ED
:104B00006F6D696E67206379636C65206661696C9F
:104B100065640032333900323338003233370032C3
:104B200033360032333500323334003233330053FE
:104B30006F6674206C696D6974206578636565645F
:104B40006564202D2043206D617800536F667420CA
:104B50006C696D6974206578636565646564202D92
:104B60002043206D696E00536F6674206C696D6917
:104B700074206578636565646564202D2042206D2E
:104B8000617800536F6674206C696D697420657874
:104B9000636565646564202D2042206D696E005355
:104BA0006F6674206C696D697420657863656564EF
:104BB0006564202D2041206D617800536F6674205C
:104BC0006C696D6974206578636565646564202D22
:104BD0002041206D696E00536F6674206C696D69A9
:104BE00074206578636565646564202D205A206DA6
:104BF000617800536F6674206C696D697420657804
:104C0000636565646564202D205A206D696E0053CC
:104C10006F6674206C696D6974206578636565647E
:104C20006564202D2059206D617800536F667420D3
:104C30006C696D6974206578636565646564202DB1
:104C40002059206D696E00536F6674206C696D6920
:104C500074206578636565646564202D2058206D37
:104C6000617800536F6674206C696D697420657893
:104C7000636565646564202D2058206D696E00535E
:104C80006F6674206C696D6974206578636565640E
:104C90006564003231390032313800323137003248
:104CA00031360032313500323134003231330032A6
:104CB000313200323131003231300032303900329D
:104CC000303800323037003230360054726170654F
:104CD0007A6F696420706C616E6E657220666169BE
:104CE0006C656420746F20636F6E76657267650013
:104CF0004C696D697420737769746368206869749E
:104D0000202D2053687574646F776E206F63637510
:104D100072726564004D616368696E652069732015
:104D2000616C61726D6564202D20436F6D6D616EE5
:104D300064206E6F742070726F63657373656400B6
:104D40004D6F7665206C657373207468616E206D9D
:104D5000696E696D756D2074696D65004D6F76655E
:104D6000206C657373207468616E206D696E696D67
:104D7000756D206C656E6774680047656E65726955
:104D8000632054696E7947206572726F7200313901
:104D9000390031393800313937003139360031398D
:104DA000350031393400313933003139320031398D
:104DB000310031393000313839003138380031387C
:104DC0003700313836003138350031383400313869
:104DD000330031383200313831003138300054205E
:104DE000776F726420697320696E76616C69640004
:104DF0005420776F7264206973206D697373696ED4
:104E000067005220776F726420697320696E766143
:104E10006C6964005220776F7264206973206D6939
:104E20007373696E67005120776F72642069732015
:104E3000696E76616C6964005120776F72642069D5
:104E400073206D697373696E67004C20776F7264AD
:104E500020697320696E76616C6964004C20776FFD
:104E60007264206973206D697373696E67004820EE
:104E7000776F726420697320696E76616C69640073
:104E80004820776F7264206973206D697373696E4F
:104E900067004520776F726420697320696E7661C0
:104EA0006C6964004520776F7264206973206D69B6
:104EB0007373696E67004420776F72642069732092
:104EC000696E76616C6964004420776F7264206952
:104ED00073206D697373696E67005020776F726419
:104EE000206973206E6F7420612076616C69642084
:104EF000746F6F6C206E756D626572005020776FF5
:104F00007264206973206E6F7420616E20696E7404
:104F100065676572005020776F7264206973206E38
:104F200065676174697665005020776F72642069E7
:104F300073207A65726F005020776F7264206973F6
:104F400020696E76616C6964005020776F7264200E
:104F50006973206D697373696E67004172632073B2
:104F6000706563696669636174696F6E20657272EA
:104F70006F72202D20656E64706F696E7420697386
:104F8000207374617274696E6720706F696E74004B
:104F90004172632073706563696669636174696FE8
:104FA0006E206572726F72202D2072616469757354
:104FB00020617263206F7574206F6620746F6C655A
:104FC00072616E6365004172632073706563696628
:104FD00069636174696F6E206572726F72202D2033
:104FE0006D697373696E67206F6666736574287385
:104FF0002900417263207370656369666963617437
:10500000696F6E206572726F72202D206D697373E7
:10501000696E67206178697328657329004172633E
:105020002073706563696669636174696F6E20657A
:1050300072726F72005370696E646C65206D757367
:1050400074206265207475726E696E6720666F7277
:10505000207468697320636F6D6D616E64005370B6
:10506000696E646C65206D757374206265206F666F
:105070006620666F72207468697320636F6D6D615E
:105080006E64005370696E646C65205320776F7294
:105090006420697320696E76616C6964005370697D
:1050A0006E646C65205320776F7264206973206D85
:1050B000697373696E67005370696E646C65207301
:1050C00070656564206578636565646564206D61FD
:1050D00078696D756D005370696E646C65207370CE
:1050E0006565642062656C6F77206D696E696D75AA
:1050F0006D0050726F6772616D6D656420706F69CD
:105100006E742073616D65206173206375727265C2
:105110006E7420706F696E740043757474657220CC
:10512000636F6D70656E736174696F6E2063616E1D
:105130006E6F7420626520656E61626C65640052FA
:1051400065717565737465642076656C6F636974E9
:10515000792065786365656473206C696D69747323
:10516000004730206F72204731206D7573742062C4
:10517000652061637469766520666F7220473533F8
:1051800000526F7461727920617865732063616E7B
:105190006E6F74206265207573656420776974682A
:1051A000207468697320636F6D6D616E6400496E71
:1051B00076657273652074696D65206D6F64652016
:1051C00063616E6E6F74206265207573656420770D
:1051D000697468207468697320636F6D6D616E64B3
:1051E000004665656472617465206E6F742073702B
:1051F000656369666965640053656C6563746564BD
:1052000020706C616E6520697320696E76616C69CF
:10521000640053656C656374656420706C616E65D1
:10522000206973206D697373696E670041786973D3
:105230002074617267657420706F736974696F6E32
:1052400020697320696E76616C69640041786973C6
:105250002074617267657420706F736974696F6E12
:10526000206973206D697373696E67004178697393
:105270002069732064697361626C656400417869B8
:105280007320697320696E76616C696420666F7241
:10529000207468697320636F6D6D616E640041787E
:1052A00069732063616E6E6F742062652070726531
:1052B00073656E74004178697320776F7264206D36
:1052C000697373696E670047636F6465206D6F640F
:1052D000616C2067726F75702076696F6C6174699C
:1052E0006F6E004D20636F646520756E737570700E
:1052F0006F727465640047636F646520636F6D6DE2
:10530000616E6420756E737570706F727465640081
:1053100047656E657269632047636F646520696ED7
:10532000707574206572726F7200313239003132DB
:105330003800313237003132360031323500313207
:105340003400313233003132320031323100313207
:1053500030003131390031313800313137003131ED
:10536000360031313500313134004A534F4E20730D
:105370007472696E6720746F6F206C6F6E67004A7D
:10538000534F4E20696E7075742068617320746F7E
:105390006F206D616E79207061697273004A534F9E
:1053A0004E2073796E746178206572726F72004955
:1053B0006E7075742076616C75652072616E6765BC
:1053C000206572726F7200496E7075742065786323
:1053D00065656473206D6178696D756D2076616CAB
:1053E000756500496E707574206C65737320746800
:1053F000616E206D696E696D756D2076616C756585
:1054000000496E7075742065786365656473206DFE
:105410006178206C656E67746800436F6D6D616EB6
:1054200064206E6F742061636365707465642061CD
:105430007420746869732074696D650050617261CD
:105440006D657465722063616E6E6F742062652095
:105450007265616400506172616D65746572206986
:105460007320726561642D6F6E6C7900556E737573
:1054700070706F72746564206E756D626572206FF6
:1054800072204A534F4E2074797065004261642047
:105490006E756D62657220666F726D617400496E23
:1054A00076616C6964206F72206D616C666F726DDD
:1054B000656420636F6D6D616E6400556E72656327
:1054C0006F676E697A656420636F6D6D616E6420CD
:1054D0006F7220636F6E666967206E616D6500474D
:1054E000656E6572696320617373657274696F6E4E
:1054F000206661696C757265004D656D6F7279200B
:105500006661756C742064657465637465640053CA
:105510007461636B206F766572666C6F772064656B
:1055200074656374656400436F6E74726F6C6C6550
:105530007220617373657274696F6E206661696C45
:105540007572650043616E6F6E6963616C206D6199
:105550006368696E6520617373657274696F6E202C
:105560006661696C75726500506C616E6E65722063
:10557000617373657274696F6E206661696C7572B0
:105580006500537465707065722061737365727421
:10559000696F6E206661696C75726500456E636F38
:1055A00064657220617373657274696F6E206661E1
:1055B000696C75726500494F207375622D7379733C
:1055C00074656D20617373657274696F6E206661B6
:1055D000696C75726500436F6E66696720737562EA
:1055E0002D73797374656D20617373657274696F5F
:1055F0006E206661696C7572650038390038380054
:105600003837003836003835003834003833003841
:10561000320038310038300037390037380037373A
:105620000037360037350037340037330037320063
:10563000373100373000363900363800363700361B
:105640003600363500363400363300363200363117
:105650000036300035390035380035370035360032
:1056600035350035340035330035320035310035FD
:1056700030003439003438003437003436003435E3
:10568000003434003433003432003431003430001C
:105690003339003338003337003336004261642039
:1056A000737461747573207265706F7274207365A2
:1056B0007474696E670050657273697374656E63A4
:1056C00065206572726F7200466C6F617420697339
:1056D000204E414E00466C6F617420697320696EE4
:1056E00066696E697465004D6F76652074696D65D5
:1056F000206973204E414E004D6F76652074696DB0
:105700006520697320696E66696E69746500476516
:105710006E6572696320657863657074696F6E2069
:105720007265706F7274004661696C656420746F95
:105730002067657420706C616E6E6572206275669C
:105740006665720053797374656D20616C61726D6A
:10575000202D207368757474696E6720646F776E8E
:1057600000496E697469616C697A6174696F6E2051
:105770006661696C75726500526561642D6F6E6C4F
:1057800079206164647265737300496E76616C6937
:10579000642041646472657373004469766964656A
:1057A000206279207A65726F00466C6F6174696E51
:1057B0006720706F696E74206572726F7200496E37
:1057C0007465726E616C2072616E676520657272BD
:1057D0006F7200496E7465726E616C206572726FD3
:1057E000720031390031380046756E6374696F6E2E
:1057F000206973207374756262656400456E746518
:1058000072696E6720626F6F74206C6F616465727D
:1058100000496E697469616C697A696E67004275E6
:10582000666665722066756C6C202D2066617461F9
:105830006C004275666665722066756C6C00427518
:105840006666657220656D707479004E6F207375A1
:10585000636820646576696365004D6178206669D8
:105860006C652073697A6520657863656564656435
:105870000046696C65206E6F74206F70656E004520
:105880006E64206F662066696C6500456E64206FEB
:1058900066206C696E65004861726420726573658C
:1058A00074005465726D696E6174656400436F6D58
:1058B000706C657465004E6F6F700045616761695B
:1058C0006E004572726F72004F4B005B7031706FEB
:1058D000665D2070776D207068617365206F666605
:1058E0002020202531352E3366205B302E2E315D71
:1058F0000A005B70317770685D2070776D2063639C
:10590000772070686173652068692531352E3366AC
:10591000205B302E2E315D0A005B703177706C5D3C
:105920002070776D20636377207068617365206CE9
:105930006F2531352E3366205B302E2E315D0A0007
:105940005B70317773685D2070776D2063637720BB
:1059500073706565642068692531352E3066205284
:10596000504D0A005B703177736C5D2070776D204D
:10597000636377207370656564206C6F2531352E05
:1059800030662052504D0A005B70316370685D20B4
:1059900070776D2063772070686173652068692077
:1059A0002531352E3366205B302E2E315D0A005BAB
:1059B000703163706C5D2070776D20637720706844
:1059C000617365206C6F202531352E3366205B3086
:1059D0002E2E315D0A005B70316373685D20707735
:1059E0006D206377207370656564206869202531B8
:1059F000352E30662052504D0A005B703163736C57
:105A00005D2070776D206377207370656564206C0E
:105A10006F202531352E30662052504D0A005B70C4
:105A2000316672715D2070776D2066726571756583
:105A30006E63792020202531352E306620487A0A81
:105A40000053595354454D205245414459004C6F21
:105A50006164696E6720636F6E6669677320667242
:105A60006F6D20454550524F4D00496E6974696114
:105A70006C697A696E6720636F6E666967732074FC
:105A80006F2064656661756C742073657474696EEB
:105A90006773007B226572223A7B226662223A2576
:105AA000302E32662C227374223A25642C226D73B8
:105AB00067223A222573227D7D0A007B65723A7B3C
:105AC00066623A25302E32662C73743A25642C6D4A
:105AD00073673A222573227D7D0A005B71765D2013
